:020000040800F2
:10000000D85E0020C101000801160008050900089B
:10001000E90D000859020008C91E00080000000090
:100020000000000000000000000000001D1A000891
:100030008502000800000000211900080D1B0008BF
:10004000DB010008DB010008DB010008DB01000820
:10005000DB010008DB010008DB010008DB01000810
:10006000DB010008DB010008DB010008DB01000800
:10007000DB010008DB010008DB010008DB010008F0
:10008000DB010008DB010008DB010008DB010008E0
:10009000DB010008DB010008DB010008DB010008D0
:1000A000DB010008DB010008DB010008DB010008C0
:1000B000DB010008DB010008DB010008DB010008B0
:1000C000DB010008DB010008DB010008DB010008A0
:1000D000DB010008611C0008711C0008C11C00083D
:1000E000DB010008DB010008DB010008DB01000880
:1000F000DB010008DB010008DB010008DB01000870
:10010000DB010008DB010008DB010008DB0100085F
:10011000DB010008DB010008DB010008DB0100084F
:10012000DB010008DB010008DB010008DB0100083F
:10013000DB010008DB010008DB010008DB0100082F
:10014000DB010008DB010008DB010008DB0100081F
:10015000DB010008DB010008DB010008111D0008BD
:10016000DB010008DB010008DB010008DB010008FF
:10017000DB010008DB010008DB010008DB010008EF
:10018000DB010008DB010008111C0008DB0100088E
:10019000DB010008DB010008DB010008DB010008CF
:1001A000DB010008DB010008DB010008DFF80CD0F0
:1001B00000F040F800480047B9220008D85E00204F
:1001C0000648804706480047FEE7FEE7FEE7FEE7F1
:1001D000FEE7FEE7FEE7FEE7FEE7FEE7B51B0008E9
:1001E000AD01000840EA01039B0703D009E008C9FC
:1001F000121F08C0042AFAD203E011F8013B00F8EC
:10020000013B521EF9D2704730B50B460146002023
:100210002022012409E021FA02F59D4205D303FAC8
:1002200002F5491B04FA02F52844151EA2F1010249
:10023000F1DC30BD064C074D06E0E06840F00103FC
:1002400094E8070098471034AC42F6D3FFF7B2FFAA
:10025000BC250008DC250008FEE7000030B502469A
:100260004FF6FF70064D07E012F8013B4340DBB24A
:10027000040A35F813006040491EC9B2F4D230BDFB
:10028000BC23000870470000F0B587B00646012186
:10029000102001F047FB0121880701F051FB0024E9
:1002A0008DF81A4001208DF81B0002258DF8195099
:1002B0008DF81850010205911B4F05A9384600F032
:1002C000B7FA8DF818508020059005A9384600F03F
:1002D000AFFA08220721384600F0E8FA0822114652
:1002E000384600F0E3FA0196ADF80840ADF80A4050
:1002F000ADF80C40ADF810400C20ADF80E000B4CE2
:1003000001A9204601F07AFD522000F06EFD012285
:1003100040F22551204601F056FD0121204601F012
:100320001FFD07B0F0BD0000001002400078004043
:1003300010B54FF4E130FFF7A7FF084800214170E6
:1003400081700020064A00F1B803D2F8584324F81F
:100350001310401C0528F6DB10BD000070000020C3
:10036000000100202DE9F0412A4F78783978884241
:100370004ED3294C2078401E052849D2C5B200F042
:10038000A7FA6178032901D0062941D1DFF88CC092
:10039000032925D11F49A2781C3101EB0516B1783C
:1003A000B2EB410F1CD1E41CDCF85813726801EB6E
:1003B000420100220BE014F8013B1B020B8014F8F1
:1003C000018B48EA0308A1F80080891C521CB3780D
:1003D0009342F0DC0F4A4FF0FF316C3222F81510D7
:1003E0000D4ADCF85843143A05F1A40332F82510FD
:1003F000411A24F8131042F82500DCF85803AE35F2
:1004000030F81510491C20F815100020B8707870CD
:10041000BDE8F08170000020D40800200001002019
:100420002DE9F05F4FF0FF37484E494AB078012878
:1004300008D17068D2F85813B83031F810305B1C0E
:1004400021F81030002070704FF0010886F802800B
:100450007068401C052190FBF1F301FB13057560EA
:100460003A4CD2F858C31C3404EB0512107B0CEB49
:100470004001D07B0CEB4003002004F1500992F8BE
:100480000DA01FE039F9154008FA00FB04EA0B043F
:10049000B460B1F900B0B3F900E0F3450FD074B126
:1004A000074639F8153008FA00F823EA080329F856
:1004B0001530BCF83801401CACF8380104E0891C48
:1004C0009B1C401C8245DDDC224D781C1DD01F4C3E
:1004D00010781434207006206070907B3844E070EF
:1004E0000888000A20710878607106212046FFF70D
:1004F000B5FEA071000AE07108222146284601F0ED
:10050000F0FC08203070BDE8F09F104F10781C37C9
:10051000A7F110042070032060705078E07090788C
:10052000607106212046FFF799FEA071000AE07174
:1005300008222146284601F0D4FC706807EB001021
:100540008178052000EB41003070DCE7700000206E
:100550000001002000780040014908607047000059
:100560000C3C024070B506460025002905D0012943
:1005700027D0022928D04FF4407500F081F80928CF
:100580001ED1134C206820F440702060206828435E
:100590002060206820F0F8002060206846F002010A
:1005A00008432060206840F48030206000F068F844
:1005B000216821F002012160216821F0F801216009
:1005C00070BD4FF48075D8E74FF40075D5E7000093
:1005D000103C024009200D490A68D20301D50120D0
:1005E00070470A68D20601D5062070470A68D2050E
:1005F00001D5022070470A6812F0E00F01D00720F1
:10060000704709688907FBD5082070470C3C0240F9
:100610000248016841F0004101607047103C02400F
:1006200070B505460E4600F02BF8092813D10A4C88
:10063000206820F440702060206840F480702060C2
:10064000206840F0010020602E8000F019F8216839
:1006500021F00101216070BD103C02400548006896
:10066000002805DA034804490C3801600349016099
:1006700070470000103C024023016745AB89EFCD75
:1006800008B509200090FFF7A5FF009002E0FFF7F2
:10069000A1FF00909DF800000128F8D09DF800000F
:1006A00008BD000001460020A1F100624FF4804324
:1006B0009A4204D320480844984201D20820704747
:1006C0001E480844984201D2102070471C48084434
:1006D000984201D2182070471A480844B0F5803F6C
:1006E00001D22020704718484FF40032084490424D
:1006F00001D22820704715480844904201D230208A
:10070000704713480844904201D23820704711487E
:100710000844904201D2402070470F48084490425C
:1007200001D2482070470D480844904201D2502021
:10073000704758207047000000C0FFF70080FFF7A7
:100740000040FFF70000FFF70000FEF70000FCF795
:100750000000FAF70000F8F70000F6F70000F4F7E1
:1007600010B5002305E030F8024B22F813405B1C63
:10077000DBB28B42F7D310BD2DE9F04105460E46A2
:100780001746FFF76BFFF320FFF7E6FE2846FFF75B
:1007900089FF044605EB4600FFF784FF804608E02A
:1007A00002212046FFF7DEFE092800D0FEE70834CC
:1007B000A4B24445F4D900240AE037F814102846BE
:1007C000FFF72EFF092800D0FEE7AD1C641CA4B281
:1007D000B442F2D3BDE8F041FFF71ABF7CB5012166
:1007E000022001F09FF84FF48054009400208DF80F
:1007F000060002208DF8070001218DF804108DF805
:1008000005000A4E6946304600F012F86500009572
:100810006946304600F00CF82146304600F056F8A4
:100820002946304600F052F87CBD0000000402402A
:100830002DE9F041002201274FF0030C07FA02F5E1
:100840000B682B40AB422CD1066853000CFA03F422
:10085000A64306600E79D0F800809E4046EA08065E
:1008600006600E79012E01D0022E12D18668A643B1
:1008700086604E79D0F808809E4046EA0806866079
:100880004668AE43466045688E799640B6B23543B9
:100890004560C568A543C560CC799C40C3681C43CE
:1008A000C460521C102AC9D3BDE8F08110B54B07B3
:1008B000DB0E9A40C90800EB8100016A0F249C40BE
:1008C000A1430162016A1143016210BD01837047B7
:1008D0000148406870470000240000200A2804D224
:1008E000074931F81020012A01D000207047044A3E
:1008F000143A32F8102021F810200120704700002F
:1009000088060020FEE70000F0B587B0064601210A
:10091000084601F007F80121480401F011F800240D
:100920008DF81A4001208DF81B0002258DF8195012
:100930008DF81850082105911B4F05A93846FFF77F
:1009400077FF8DF818500420059005A93846FFF769
:100950006FFF072202213846FFF7A8FF0722032175
:100960003846FFF7A3FF0196ADF80840ADF80A40FE
:10097000ADF80C40ADF810400C20ADF80E000B4C5B
:1009800001A9204601F03AFA262000F02EFA0122B1
:1009900040F22551204601F016FA0121204601F0CF
:1009A000DFF907B0F0BD0000000002400044004045
:1009B00010B54FF4E130FFF7A7FF0C4C002020707A
:1009C00060700B49D1F85813A1F87A010720A07084
:1009D000FFF77EFF6060062104F10800FFF73EFC90
:1009E00004F108018871000AC87110BDE8000020F8
:1009F0000001002070B5144C2078A178884222D3E1
:100A0000124D287801281ED1687803281BD1A878B8
:100A1000022818D1FFF75CFF2979EA7841EA02221F
:100A20000B490B68A3F80021A2880B68821AA3F86F
:100A3000522160600868B0F86611491CA0F8661180
:100A400000202070607070BDE8000020D4090020F4
:100A5000580400200A494878012807D10948D0F8ED
:100A60005803B0F87A21521CA0F87A2100200870AF
:100A700001204870024908220831034801F031BAC8
:100A8000E8000020000100200044004010B545F2BD
:100A9000555000F031F8022000F022F840F6FF70C7
:100AA00000F024F800F014F8BDE81040AFF3008027
:100AB00002494CF6CC40086070470000003000400E
:100AC00002494AF6AA200860704700000030004042
:100AD00002494AF6AA200860704700000030004032
:100AE00001494860704700000030004001498860BB
:100AF0007047000000300040014908607047000066
:100B000000300040F0B587B006460121084600F0ED
:100B100009FF0121102000F021FF00248DF81A4068
:100B200001208DF81B0002258DF819508DF8185002
:100B3000410205911B4F05A93846FFF779FE8DF854
:100B400018506802059005A93846FFF771FE072284
:100B50000A213846FFF7AAFE072209213846FFF787
:100B6000A5FE0196ADF80840ADF80A40ADF80C407E
:100B7000ADF810400C20ADF80E000B4C01A920463A
:100B800001F03CF9252000F030F9012240F2255116
:100B9000204601F018F90121204601F0E1F807B0E4
:100BA000F0BD00000000024000100140F0B587B029
:100BB00006460121022000F0B5FE0121880400F064
:100BC000BFFE00248DF81A4001208DF81B0002257D
:100BD0008DF819508DF81850C10205911B4F05A9C9
:100BE0003846FFF725FE8DF818506802059005A9D4
:100BF0003846FFF71DFE07220A213846FFF756FE4A
:100C000007220B213846FFF751FE0196ADF8084048
:100C1000ADF80A40ADF80C40ADF810400C20ADF82E
:100C20000E000B4C01A9204601F0E8F8272000F047
:100C3000DCF8012240F22551204601F0C4F80121E0
:100C4000204601F08DF807B0F0BD0000000402401E
:100C50000048004010B54FF4E130FFF7A7FF0C4CFF
:100C600000206070A0700B49D1F85813A1F86E01F4
:100C700041202070FFF72CFE6060062104F108007F
:100C8000FFF7ECFA04F108018871000AC87110BD81
:100C900044000020000100202DE9F041204D68783B
:100CA000297888423AD31F4C2078012836D1FFF7A3
:100CB0000FFE6178032901D006292FD11A4E03298E
:100CC0001BD1A1783C2918D1E41CD6F858133C312B
:100CD000002223781B020B806778A41C1F4321F895
:100CE000027B521C1E2AF4DB00210D4B012218331B
:100CF00043F82120491C0529FADBA988D6F8582396
:100D0000411AA2F846116860D6F85803B0F85A1193
:100D1000491CA0F85A110020A8706870BDE8F08145
:100D200044000020C0070020000100202DE9F0470A
:100D30004FF0FF35294E2A49B078012806D1D1F865
:100D40005803B0F86E21521CA0F86E214FF0000835
:100D500086F801800120B070D1F85803014600F5F3
:100D60008C70503100241D4F1837B0F90020B1F9B4
:100D700000309A4204D057F824200AB1254604E0F6
:100D8000801C891C641C052CEFDBDFF85890691C63
:100D90001AD0124C09311034E1700188090A21710E
:100DA0000078607106212046FFF758FAA071000A0A
:100DB000E0710820307047F8258021464846BDE89C
:100DC000F047082201F08DB804490822083148464E
:100DD00001F087F841203070BDE8F0874400002022
:100DE0000001002000480040FEE738B504464FF4FB
:100DF000A06000F03BFC8DF8004000208DF8010061
:100E000001208DF802008DF80300684600F0FAFB1F
:100E100038BD0000F0B5B3B0044601AA64217C4897
:100E2000FFF79EFCBDF8B800012508B1FE2801D9E6
:100E3000ADF8B850BDF8BA0060280DD0C0280BD06E
:100E4000B0F5C07F08D0B0F5107F05D04FF49061A9
:100E5000884201D0ADF8BA10BDF8CA00401CADF808
:100E6000CA00BDF8C010C820C82901D2ADF8C00022
:100E7000BDF8C0204FF4FA718A4201D9ADF8C01014
:100E8000BDF8BE3041F288320026934201D9ADF858
:100E9000BE60BDF8C430C82B01D2ADF8C400BDF8A7
:100EA000C4308B4201D9ADF8C410BDF8C2309342B2
:100EB00001D9ADF8C260BDF8C830C82B01D2ADF879
:100EC000C800BDF8C800884201D9ADF8C810BDF807
:100ED000C600904201D9ADF8C660BDF8B8002081C7
:100EE000BDF8BA00642148436060BDF8BE00C4F894
:100EF0002C03BDF8C000C4F83003BDF8BE00BDF837
:100F0000C0100844C4F83403BDF8C000400001F02C
:100F10001FFAC4F8380342F20F7708B9C4F83073E7
:100F2000BDF8C200C4F84C03BDF8C400C4F85003B7
:100F3000BDF8C200BDF8C4100844C4F85403BDF89D
:100F4000C400400001F004FAC4F8580308B9C4F81A
:100F50005073BDF8C600C4F83C03BDF8C800C4F81F
:100F60004003BDF8C600BDF8C8100844C4F84403E7
:100F7000BDF8C800400001F0EBF9C4F8480308B917
:100F8000C4F84073D4F850136FF0C70202EB41016C
:100F9000D4F85803C822084401A9FFF723F9606870
:100FA0000A220521B0F5164F28D006DCB0F5165FF1
:100FB0001DD0B0F5964F06D11DE0B0F5614F20D0A1
:100FC000B0F5E13F20D084F8682584F8646584F8A2
:100FD0006765A4F86A6584F86C5504F55770C4F821
:100FE0005C0504F25C40C4F8600533B0F0BD0F202E
:100FF00084F86805E9E784F86825E6E784F8681569
:10100000E3E784F86815E0E784F86815DDE7000099
:101010000000010870B505460E4605F25C552868CB
:10102000417841F0800141702968687B8870032114
:101030002868FFF713F92968C8702968000AA5F223
:101040005C5508710024D5F85C05015D304600F060
:1010500037FF4021304600F08FFE0028F9D0641C95
:10106000052CF0DB70BD70B504460D4640F22551ED
:10107000284600F088FED0B1284600F01DFFC0B21F
:1010800094F86725002182B1B4F90820824204D087
:1010900094F864250AB984F8671594F86425531CFC
:1010A00084F86435D4F860359854A4F86A1540F291
:1010B00027742146284600F066FE002806D0214607
:1010C0002846BDE87040002200F07DBE70BD70B5BE
:1010D00004460E4604F25C54A07A801EC1B2206819
:1010E000FFF7BCF8A27A2168114401F8020CA27A39
:1010F0002168000A1144A4F25C5401F8010C002597
:101100000CE0D4F85C05415D304600F0D9FE40218A
:10111000304600F031FE0028F9D06D1C94F86605C9
:10112000A842EEDC70BD2DE9F0410446D4F85C55D0
:101130006878002804D0C11F082901D3102802D9DB
:101140000120BDE8F08194F86505A0F10801F329BC
:1011500001D30320F5E7801EC1B22846FFF77EF8D1
:10116000014694F86505AA1E835C6A1E805C43EA0A
:101170000020814201D00320E3E7E878A97840EA23
:10118000012168792A7940EA02206A780127012A38
:1011900010D0022A0ED00826052A57D00F2A7AD05E
:1011A000032A74D0042A73D0062A72D0102A71D070
:1011B0000120C6E7B0F5707F01D90320C1E7D4F85C
:1011C0002C238A4201DD0220BBE7D4F834330A180D
:1011D0009A4201DD0220B4E7AA1C43070AD0C308E3
:1011E0005B1C02F8013BB4F82C33C91A8BB2002106
:1011F000002623E0C308F4E7D4F838C33CF813C052
:10120000BCF1000F08D092F800C007FA01F84CEAD0
:10121000080C82F800C007E092F800C007FA01F855
:101220002CEA080C82F800C0491CC9B2082901D375
:101230000021521C5B1C9BB2761CB6B28642DBD3EB
:10124000A878401D84F8660500207AE7D4F82C239E
:101250008A4203DCD4F834338B4201DC022070E78D
:10126000B0F57F4F02D038B103206AE7D4F83803D5
:10127000891A20F8117005E00020D4F83833891A53
:1012800023F8110084F8666500205AE703E034E093
:1012900060E08CE0A0E0D4F82C338B4201DD02202A
:1012A0004FE7D4F834C30A18624501DD022048E74D
:1012B0000022ED1DD4F838C3C91A0CEB41030021FC
:1012C00015E095F800C007FA02F81CEA080F02D0F2
:1012D0004FF0010C01E04FF0000C23F802CB521C40
:1012E000D2B2082A01D300226D1C491C89B2814266
:1012F000E7D384F86665002023E77D2801D9032021
:101300001FE7D4F84C338B4201DD022019E7D4F8F3
:1013100054630A18B24201DD022012E72A46D4F8CB
:101320005863C91A06EB410143009370D21C002395
:1013300008E00E88360A167011F8026B5670921C7F
:101340005B1C9BB28342F4D3A878401D84F86605E9
:101350000020F6E67D2801D90320F2E6D4F83C33DC
:101360008B4201DD0220ECE6D4F844630A18B24255
:1013700001DD0220E5E62A46D4F84863C91A06EBE7
:10138000410143009370D21C002308E00E88360A06
:10139000167011F8026B5670921C5B1C9BB2834254
:1013A000F4D3A878401D84F866050020C9E6D4F877
:1013B0004C238A4203DCD4F854338B4201DC0220F4
:1013C000BFE6D4F85833891A23F8110084F86C75F5
:1013D00084F866650020B4E6D4F84C238A4201DD27
:1013E0000220AEE6D4F854C30B18634501DD022099
:1013F000A7E6ED1DD4F85833891A03EB410100220A
:101400000CE015F8013B1B020B8015F801CB4CEAF0
:10141000030CA1F800C0891C521C92B28242F0D386
:1014200084F86C7584F8666500208AE610B5044679
:1014300094F86C0500280FD0D4F850136FF0C70251
:10144000D4F8580302EB4101421864210348FFF726
:1014500093F9002084F86C0510BD0000000001081D
:101460002DE9F04104460E46B4F86A0594F8681573
:10147000884234D904F25C5421686068206061605D
:10148000227A6272002727720121E172A4F25C5471
:10149000082A22D30078B4F9081088421DD1FFF73A
:1014A00017FA05462046FFF73EFE84F8690520B18D
:1014B00031462046FFF7AEFD0FE031462046FFF7EC
:1014C00006FEB4F87005D4F85013281AD4F858233F
:1014D000083922F81100C4F87055A4F86A75BDE8FF
:1014E000F08100000348B0F86A15491CA0F86A159D
:1014F000704700000001002030B599B01A48FFF78E
:1015000089FC194C6068FFF7FDFAB4F9082017A1AF
:101510006846636800F006FD1C4D6946284600F0E9
:10152000EEFC04F54B721AA10CCA684600F0FAFCF6
:101530006946284600F0E3FC04F553721CA10CCA6E
:10154000684600F0EFFC6946284600F0D8FC04F538
:101550004F741FA10CCC684600F0E4FC6946284695
:1015600000F0CDFC19B030BD000100200D0A53740D
:101570006174696F6E204E6F3A2025642C204261A1
:101580007564726174653A202564000000100140A2
:101590000D0A436F696C2053746172742061647228
:1015A0003A202534642C204C656E3A2025346400A2
:1015B0000D0A526567202053746172742061647251
:1015C0003A202534642C204C656E3A202534640082
:1015D0000D0A526F6D202053746172742061647221
:1015E0003A202534642C204C656E3A202534640062
:1015F00001490248FFF734BF0010014000010020FC
:101600007047000030B50F23C27801250178002A09
:101610001FD0154A126802F4E062C2F5E062C2F31C
:101620000722C2F10404D3404278A24084781C40CF
:101630001443220101F1E02181F80024007800F038
:101640001F018D404009800000F1E020C0F80051EA
:1016500030BD01F01F0085404809800000F1E02006
:10166000C0F8805130BD00000CED00E00249084395
:1016700002490860704700000000FA050CED00E028
:10168000F0B587B006460121042000F04BF9012196
:10169000202000F063F900248DF81A4001208DF815
:1016A0001B0002258DF819508DF8185080210591E6
:1016B0001B4F05A93846FFF7BBF88DF8185040209E
:1016C000059005A93846FFF7B3F8082206213846E9
:1016D000FFF7ECF8082207213846FFF7E7F80196F4
:1016E000ADF80840ADF80A40ADF80C40ADF8104038
:1016F0000C20ADF80E000B4C01A9204600F07EFB3B
:101700004720FFF772FB012240F22551204600F0EE
:101710005AFB0121204600F023FB07B0F0BD00007A
:1017200000080240001401402DE9F0414FF416403A
:10173000FFF7A6FF00240A4E002506F10C0726F845
:101740001450FFF7C5F804EBD471491047F8210095
:10175000641C062CF3DB03488570C570BDE8F0817E
:10176000A80700202C0000202DE9F041314FB87867
:10177000397888425CD3304D2878FF2858D1687872
:10178000FF2855D1A878A52852D1E8786138C4B28D
:10179000032C4DD22879294E81282ED1FFF798F8B5
:1017A000AA1DD6F8581304EB840301EB8301002330
:1017B00012F801CB4FEA0C2CA1F800C012F8018BF3
:1017C00048EA0C08A1F80080891C5B1C092BEFDBA0
:1017D000D6F8582304F1AA0132F811305B1C22F824
:1017E0001130174AD6F858C304F1A00332F8241078
:1017F000411A2CF8131042F824002879822814D1B9
:101800009621D6F8580301EB440130F811200C4919
:101810000C3921F82420972202EB440230F8120000
:10182000012202EB440221F812000020B870F87087
:10183000BDE8F0812C000020A80600200001002057
:10184000B40700202DE9F041314D324BE8780128F2
:1018500008D16878D3F85813B43031F81020521CEE
:1018600021F810200020A8700120E8706C78620038
:1018700002F19601D3F85833274E284833F91170F6
:1018800036F912C0674507D14F1C521C33F9177047
:1018900036F91220974222D01D4E61340C36E4B244
:1018A000F47033F811200AB1012200E00022B27175
:1018B000491C33F8111081B110211143B1713279F3
:1018C0007379224419441144F171114909220C31F0
:1018D00000F007FB0B2028700FE00021EDE70C491A
:1018E0006134091DCC700A794B7922441A448A71FB
:1018F000082200F0F6FA1D2028706878401C0321A9
:10190000B0FBF1F201FB12006870BDE8F08100004D
:101910002C00002000010020A80700200014014036
:1019200070470000054A002903D011680143116087
:1019300070471168814311607047000030380240E1
:10194000054A002903D011680143116070471168EE
:10195000814311607047000040380240054A002969
:1019600003D0116801431160704711688143116011
:10197000704700004438024070B5244B196801F0EC
:101980000C01234C00291ED0224E04291DD0082909
:101990001DD00460196801F0F00109091E4A545C69
:1019A0000168E14041601C6804F4E054A40A145D3D
:1019B00021FA04F484601B6803F460435B0BD25C7F
:1019C000D140C16070BD0460E4E70660E2E70F4A01
:1019D000121F1168C1F38055116801F03F0135B144
:1019E000B6FBF1F11468C4F38814614305E0B4FB5D
:1019F000F1F11468C4F3881461431268C2F3014220
:101A0000521C5200B1FBF2F10160C3E708380240FA
:101A10000024F40040787D0114000020704700008D
:101A20001CB50021019100912E4A106840F48030CD
:101A300010604FF4A043106800F40030009001984B
:101A4000401C0190009810B901989842F3D1106899
:101A5000800302D50120009000E000910098012849
:101A60003FD120484030016841F0805101601E495B
:101A7000086840F4404008601A4808300368036072
:101A8000036843F400430360036843F4A053036016
:101A9000041F164B2360136843F0807313601368B0
:101AA0009B01FCD50A6842F480320A604A68D2037E
:101AB000FCD50A6842F400320A604A689203FCD5F9
:101AC0000B4A40F205711160016821F003010160C9
:101AD000016841F0020101600168C1F3810102293E
:101AE000FAD11CBD0038024000700040195A40076E
:101AF000003C02400A2806D2034A491C22F8101072
:101B0000143222F8101070477406002010B5FFF749
:101B1000E9FC0C484168491C4160016811B9016841
:101B2000491E01600020084931F81020012A04D91B
:101B300031F81020521E21F81020401C0A28F3DB37
:101B400010BD0000240000208806002010B51648B3
:101B500042F210710068B0FBF1F0401E00214FF01E
:101B6000E022B0F1807F01D3012007E050610F4BEC
:101B7000F0201870916107201061002000B1FEE78D
:101B8000106960F0010010610020094A02F114039D
:101B900002F1280422F8101023F810102154401CE0
:101BA0000A28F7DB10BD00000000002023ED00E054
:101BB0007406002010B51248016841F470010160FC
:101BC0001048016841F0010101600E4A002108320D
:101BD000116002680C4B1A400260031D0B4A1A6028
:101BE000026822F48022026006480C300160FFF790
:101BF00017FF03494FF000608039086010BD0000F6
:101C000088ED00E000380240FFFFF6FE10300024AF
:101C100070B5104C40F22551204600F0B4F840B1A8
:101C2000204600F049F90C4B59784A1C5A700B4A6F
:101C3000505440F227752946204600F0A4F80028A9
:101C400006D029462046BDE87040002200F0BBB80F
:101C500070BD00000078004070000020D408002013
:101C600001490248FFF7FFB90010014000010020C0
:101C700070B5104C40F22551204600F084F840B178
:101C8000204600F019F90C4B19784A1C1A700B4ABF
:101C9000505440F227752946204600F074F8002879
:101CA00006D029462046BDE87040002200F08BB8DF
:101CB00070BD000000440040E8000020D40900206E
:101CC00070B5104C40F22551204600F05CF840B150
:101CD000204600F0F1F80C4B59784A1C5A700B4A18
:101CE000505440F227752946204600F04CF8002851
:101CF00006D029462046BDE87040002200F063B8B7
:101D000070BD00000048004044000020C0070020D3
:101D100070B5104C40F22551204600F034F840B127
:101D2000204600F0C9F80C4B99784A1C9A700B4A6F
:101D3000505440F227752946204600F024F8002828
:101D400006D029462046BDE87040002200F03BB88E
:101D500070BD0000001401402C000020A8060020E7
:101D6000002904D0818941F4005181817047818923
:101D700021F40051818170470246002012880A42F6
:101D800000D00120704770B5002440F66A12C1F3FC
:101D9000421301F01F05012606FA05F2012B0CD0B3
:101DA000022B0DD0838A1340090A8E4000883040F0
:101DB0000BB100B10124204670BD83891340F3E7C5
:101DC000038A1340F0E710B540F66A13C1F34213DB
:101DD00001F01F040121A140012B07D0022B07D0E5
:101DE00014303AB102680A43026010BD0C30F8E7C3
:101DF0001030F6E702688A43026010BD7FB50446E2
:101E00000D46208A20F44051E88808432082A089AA
:101E100041F20C618843A9882A8911436A890243E7
:101E20001143A181A08A20F44071A8890843A082AF
:101E30006846FFF7A1FD1E48844202D01D48844237
:101E400001D1039800E00298A189090408D500EBAC
:101E5000C00101EB001029684900B0FBF1F007E078
:101E600000EBC00101EB001029688900B0FBF1F024
:101E70006422B0FBF2F109010B096FF018056B4306
:101E800000EB8300A3891D044FF0320307D503EB59
:101E9000C000B0FBF2F000F00700084306E003EBDF
:101EA0000010B0FBF2F000F00F00084320817FBD6E
:101EB00000100140001401408088C0F30800704702
:101EC000C1F3080181807047FEE710B50446204643
:101ED000FFF7F6FF80212046FFF74EFF0028F9D0DC
:101EE00010BD70B506460C46154604E014F8011BFB
:101EF0003046FFF7EAFF6D1E681CF7D170BD70B564
:101F000006460D4600243046295DFFF7DEFF641CBF
:101F1000285D0028F7D140213046FFF72DFF00282B
:101F2000F9D070BD0FB4084B10B504A902AA0398EC
:101F300000F01CF8044602A9002000F0B8F9204681
:101F400010BC5DF814FB0000AF22000802E008C8D6
:101F5000121F08C1002AFAD170477047002001E023
:101F600001C1121F002AFBD1704700002DE9FF4F6D
:101F70008BB088460546002606E025280BD0DDE913
:101F80000D1290476D1C761C28780028F5D10FB0F3
:101F90003046BDE8F08F0024A146A2460122AE499A
:101FA00000E0044315F8013F203B02FA03F0084229
:101FB000F7D128782A2810D06FF02F022878A0F1C6
:101FC0003001092915D809EB890102EB410144F0E0
:101FD000020400EB01096D1CF0E758F8041B5FEAEE
:101FE000010903D544F40054C9F1000944F0020486
:101FF0006D1C28782E2817D115F8010F44F0040421
:102000002A280ED06FF02F022878A0F1300109297C
:102010000AD80AEB8A0102EB410100EB010A6D1CB0
:10202000F2E758F804AB6D1C28786C280FD006DC5A
:102030004C2817D068280DD06A2814D104E07428E1
:1020400010D07A280FD10DE044F400140AE044F4D3
:10205000801401E044F440146978814202D104F50F
:1020600080146D1C6D1C2878692865D006DC00285A
:102070008DD0632827D0642806D15DE06E2808D073
:1020800073282AD0752877D0DDE90D129047761C89
:10209000E0E0C4F30250022809D003280DD0D8F89C
:1020A000001004280DD00E6008F10408D2E0D8F822
:1020B0000010F217C1E90062F6E7D8F800100E80B0
:1020C000F2E70E70F0E718F8041B8DF800100020FE
:1020D0008DF80100EB46012003E058F804BB4FF0F7
:1020E000FF3061074FF0000701D40AE07F1C57451D
:1020F0000DDA8742FADB1BF807100029F6D106E05B
:102100007F1C8742FCDB1BF807100029F8D1DDE9B2
:102110000D23A9EB07008146214600F0B1F83044B9
:10212000C61904E0DDE90D121BF8010B90477F1E74
:10213000F8D22146484688E058F8040BC4F302510F
:102140004FF00A0B032900D100B2042900D140B29C
:10215000002802DA40422D2102E0210505D52B217D
:102160008DF82410012104E006E0E10710D02021C1
:10217000F6E708AF089113E058F8040BC4F30251D6
:102180004FF00A0B032900D180B2042900D1C0B25C
:102190000021EEE75946FEF737F8303107F8011D08
:1021A0000028F7D1ADEB070000F1200B600702D546
:1021B00024F4803401E04FF0010ADA4502DDAAEB95
:1021C0000B0000E00020824600EB0B010898014460
:1021D000A9EB01000A90E00306D4DDE90D232146B6
:1021E0000A9800F04DF806444FF0000908E009A9EC
:1021F00011F80900DDE90D12904709F10109761C7B
:1022000008998945F3DBE0030CD5DDE90D23214670
:102210000A9800F035F8064404E0DDE90D1230209C
:102220009047761CBAF10001AAF1010AF5DC05E03D
:10223000DDE90D1217F8010B9047761CBBF1000188
:10224000ABF1010BF4DC0A982146DDE90D2300F027
:1022500005F806446D1C97E6092801002DE9F041B8
:10226000044600251E461746880404D405E0394676
:102270002020B0476D1C641EF9D52846BDE8F081CA
:102280002DE9F041044600251E469046C80301D5BD
:10229000302700E02027880404D505E04146384671
:1022A000B0476D1C641EF9D52846BDE8F0810A6868
:1022B000531C0B6010707047FFF748FCFEF78EFA56
:1022C000FFF71AF9FFF730FAFEF7C4FCFEF730F813
:1022D000FEF76EFB4FF4FA710020FFF70BFC4FF492
:1022E0007A710120FFF706FC64210220FFF702FC4F
:1022F000FEF7CCFB144CFFF77BF9FFF735FAFEF73E
:10230000CBFCFEF72FF8FEF775FB0020FEF7E6FA90
:1023100028B1FEF7D5FB206880F400502060012032
:10232000FEF7DCFA10B10948FFF780F80220FEF74B
:10233000D5FA0028DFD0FFF785FAFEF7F7FCFEF7A5
:102340006FF8FEF787FBD6E7140402400001002077
:10235000F0B50B30154D20F007010024144A0FE0B2
:1023600003688B420BD38B4205D95E1A431847682A
:10237000C3E9006700E04368136002C004E0021D87
:1023800010680028ECD12046002802D1286808B146
:102390000020F0BD064A07481060074A121A22F0D2
:1023A0000702C0E9002401202860D7E7FC000020D4
:1023B000F8000020DC0A0020D85A00200000C1C02C
:1023C00081C1400101C3C003800241C201C6C006F1
:1023D000800741C70005C1C581C4400401CCC00CC1
:1023E000800D41CD000FC1CF81CE400E000AC1CA81
:1023F00081CB400B01C9C009800841C801D8C01871
:10240000801941D9001BC1DB81DA401A001EC1DEF0
:1024100081DF401F01DDC01D801C41DC0014C1D4E0
:1024200081D5401501D7C017801641D601D2C01200
:10243000801341D30011C1D181D0401001F0C030D0
:10244000803141F10033C1F381F240320036C1F6F0
:1024500081F7403701F5C035803441F4003CC1FCC0
:1024600081FD403D01FFC03F803E41FE01FAC03A80
:10247000803B41FB0039C1F981F840380028C1E8B0
:1024800081E9402901EBC02B802A41EA01EEC02EF0
:10249000802F41EF002DC1ED81EC402C01E4C024E0
:1024A000802541E50027C1E781E640260022C1E200
:1024B00081E3402301E1C021802041E001A0C06010
:1024C000806141A10063C1A381A240620066C1A6F0
:1024D00081A7406701A5C065806441A4006CC1ACC0
:1024E00081AD406D01AFC06F806E41AE01AAC06A80
:1024F000806B41AB0069C1A981A840680078C1B870
:1025000081B9407901BBC07B807A41BA01BEC07EEF
:10251000807F41BF007DC1BD81BC407C01B4C074DF
:10252000807541B50077C1B781B640760072C1B2FF
:1025300081B3407301B1C071807041B00050C1904F
:10254000819140510193C053805241920196C056EF
:10255000805741970055C19581944054019CC05CBF
:10256000805D419D005FC19F819E405E005AC19A7F
:10257000819B405B0199C059805841980188C048AF
:1025800080494189004BC18B818A404A004EC18EEF
:10259000818F404F018DC04D804C418C0044C184DF
:1025A000818540450187C047804641860182C042FF
:1025B000804341830041C18181804040DC25000887
:1025C00000000020000100004C1F0008DC2600086D
:1025D00000010020D85D00005C1F00080095BA0AC9
:1025E00000000000000000000102030406070809C3
:1025F00000000000010203040102030406070809A9
:10260000000000000000000064000000FFFFA56162
:102610000105CC26FFFFA561020600CC26000000C4
:10262000550000000000000001030000001E000033
:10263000010600000000CCCC0100000001000000F9
:102640000100000001000000010000005500000032
:102650000000000000000000010300000000000076
:10266000010600000000CCCC010018005000000062
:1026700018000000C8100858020018006800000088
:1026800018000000D810087003000A003C00000089
:102690000A0000000000000004000A0046000000DC
:1026A0000A00000000000000050008008200000091
:1026B00008000000E8080082FFFFFFFFFFFFFFFFA8
:1026C000FFFF000000000000000000000103000008
:0C26D000000100000000000000000000FD
:04000005080001AD41
:00000001FF
