:020000040800F2
:10000000B85B0020C1010008A11500081109000813
:10001000150E000859020008711E000800000000BB
:10002000000000000000000000000000C5190008EA
:100030008502000800000000C9180008B51A000871
:10004000DB010008DB010008DB010008DB01000820
:10005000DB010008DB010008DB010008DB01000810
:10006000DB010008DB010008DB010008DB01000800
:10007000DB010008DB010008DB010008DB010008F0
:10008000DB010008DB010008DB010008DB010008E0
:10009000DB010008DB010008DB010008DB010008D0
:1000A000DB010008DB010008DB010008DB010008C0
:1000B000DB010008DB010008DB010008DB010008B0
:1000C000DB010008DB010008DB010008DB010008A0
:1000D000DB010008091C0008191C0008691C000845
:1000E000DB010008DB010008DB010008DB01000880
:1000F000DB010008DB010008DB010008DB01000870
:10010000DB010008DB010008DB010008DB0100085F
:10011000DB010008DB010008DB010008DB0100084F
:10012000DB010008DB010008DB010008DB0100083F
:10013000DB010008DB010008DB010008DB0100082F
:10014000DB010008DB010008DB010008DB0100081F
:10015000DB010008DB010008DB010008B91C000816
:10016000DB010008DB010008DB010008DB010008FF
:10017000DB010008DB010008DB010008DB010008EF
:10018000DB010008DB010008B91B0008DB010008E7
:10019000DB010008DB010008DB010008DB010008CF
:1001A000DB010008DB010008DB010008DFF80CD0F0
:1001B00000F040F80048004761220008B85B0020CA
:1001C0000648804706480047FEE7FEE7FEE7FEE7F1
:1001D000FEE7FEE7FEE7FEE7FEE7FEE75D1B000841
:1001E000AD01000840EA01039B0703D009E008C9FC
:1001F000121F08C0042AFAD203E011F8013B00F8EC
:10020000013B521EF9D2704730B50B460146002023
:100210002022012409E021FA02F59D4205D303FAC8
:1002200002F5491B04FA02F52844151EA2F1010249
:10023000F1DC30BD064C074D06E0E06840F00103FC
:1002400094E8070098471034AC42F6D3FFF7B2FFAA
:100250006425000884250008FEE7000030B502464A
:100260004FF6FF70064D07E012F8013B4340DBB24A
:10027000040A35F813006040491EC9B2F4D230BDFB
:100280006423000870470000F0B587B006460121DE
:10029000102001F01BFB0121880701F025FB002441
:1002A0008DF81A4001208DF81B0002258DF8195099
:1002B0008DF81850010205911B4F05A9384600F032
:1002C000BDFA8DF818508020059005A9384600F039
:1002D000B5FA08220721384600F0EEFA0822114646
:1002E000384600F0E9FA0196ADF80840ADF80A404A
:1002F000ADF80C40ADF810400C20ADF80E000B4CE2
:1003000001A9204601F04EFD522000F084FD01229B
:1003100040F22551204601F02AFD0121204601F03E
:10032000F3FC07B0F0BD0000001002400078004070
:1003300010B5114C6421A06BB0F8340210FB01F031
:10034000FFF7A2FF0D48002242708270A06B00F5FB
:10035000B870052101E020F8022B491E4B1CFAD190
:10036000A06B00F5C870282101E020F8022B491E7F
:100370004B1CFAD110BD00000001002070000020CD
:100380002DE9F0412A4F7878397888424ED3294CAC
:100390002078401E052849D2C5B200F09FFA617846
:1003A000032901D0062941D1DFF88CC0032925D1CA
:1003B0001F49A2781C3101EB0516B178B2EB410F51
:1003C0001CD1E41CDCF83810726801EB42010022F9
:1003D0000BE014F8013B1B020B8014F8018B48EA78
:1003E0000308A1F80080891C521CB3789342F0DC0A
:1003F0000F4A4FF0FF316C3222F815100D4ADCF82D
:100400003840143A05F1A40332F82510411A24F8B3
:10041000131042F82500DCF83800AE3530F815101E
:10042000491C20F815100020B8707870BDE8F081E4
:1004300070000020B4050020000100202DE9F05FCD
:100440004FF0FF3C444E454AB078012807D1706810
:10045000916BB83031F810305B1C21F8103000205F
:1004600070704FF0010886F802807068401C052704
:1004700090FBF7F107FB11057560374C906B1C344E
:1004800004EB0513197B00EB4102D97B00EB410023
:10049000002104F1500993F80DA01AE039F9154034
:1004A00008FA01FB04EA0B04B460B2F900B0B0F939
:1004B00000E0F3450AD04CB18C4639F8150008FA33
:1004C00001F820EA080029F8150004E0921C801CBD
:1004D000491C8A45E2DC224DBCF1FF3F1BD01E4C7B
:1004E000187814342070987B6044E0701088000AFB
:1004F00020711078607106212046FFF7AFFEA071D1
:10050000000AE07108222146284601F0BEFC0820BE
:100510003070BDE8F09FDFF84080187808F11C08C3
:10052000A8F1100420705878E07098786071062166
:100530002046FFF793FEA071000AE07108222146D1
:10054000284601F0A2FC706808EB0010807807EBE9
:1005500040003070DDE70000700000200001002046
:100560000078004001490860704700000C3C0240E0
:1005700070B506460025002905D0012927D002299B
:1005800028D04FF4407500F081F809281ED1134C93
:10059000206820F440702060206828432060206894
:1005A00020F0F8002060206846F002010843206037
:1005B000206840F48030206000F068F8216821F065
:1005C00002012160216821F0F801216070BD4FF423
:1005D0008075D8E74FF40075D5E70000103C024065
:1005E00009200D490A68D20301D5012070470A6825
:1005F000D20601D5062070470A68D20501D502202F
:1006000070470A6812F0E00F01D0072070470968B0
:100610008907FBD5082070470C3C0240024801685E
:1006200041F0004101607047103C024070B5054642
:100630000E4600F02BF8092813D10A4C206820F44C
:1006400040702060206840F480702060206840F096
:10065000010020602E8000F019F8216821F00101CE
:10066000216070BD103C024005480068002805DA92
:10067000034804490C3801600349016070470000D9
:10068000103C024023016745AB89EFCD08B5092036
:100690000090FFF7A5FF009002E0FFF7A1FF009098
:1006A0009DF800000128F8D09DF8000008BD00006A
:1006B00001460020A1F100624FF480439A4204D326
:1006C00020480844984201D2082070471E48084438
:1006D000984201D2102070471C480844984201D229
:1006E000182070471A480844B0F5803F01D22020F6
:1006F000704718484FF400320844904201D2282035
:10070000704715480844904201D230207047134882
:100710000844904201D23820704711480844904262
:1007200001D2402070470F480844904201D248202F
:1007300070470D480844904201D25020704758201D
:100740007047000000C0FFF70080FFF70040FFF790
:100750000000FFF70000FEF70000FCF70000FAF7CA
:100760000000F8F70000F6F70000F4F710B50023DA
:1007700005E030F8024B22F813405B1CDBB28B42E1
:10078000F7D310BD2DE9F04105460E461746FFF799
:100790006BFFF320FFF7E6FE2846FFF789FF0446CC
:1007A00005EB4600FFF784FF804608E00221204663
:1007B000FFF7DEFE092800D0FEE70834A4B2444566
:1007C000F4D900240AE037F814102846FFF72EFF6A
:1007D000092800D0FEE7AD1C641CA4B2B442F2D3D9
:1007E000BDE8F041FFF71ABF7CB50121022001F0FE
:1007F0006DF84FF48054009400208DF8060002201C
:100800008DF8070001218DF804108DF805000A4EBF
:100810006946304600F012F865000095694630469A
:1008200000F00CF82146304600F056F829463046D4
:1008300000F052F87CBD0000000402402DE9F041B8
:10084000002201274FF0030C07FA02F50B682B403A
:10085000AB422CD1066853000CFA03F4A6430660A1
:100860000E79D0F800809E4046EA080606600E79B0
:10087000012E01D0022E12D18668A64386604E79E1
:10088000D0F808809E4046EA080686604668AE4377
:10089000466045688E799640B6B235434560C56876
:1008A000A543C560CC799C40C3681C43C460521CFE
:1008B000102AC9D3BDE8F08110B54B07DB0E9A4072
:1008C000C90800EB8100016A0F249C40A14301622A
:1008D000016A1143016210BD0183704701484068FD
:1008E00070470000240000200A2804D2074931F88C
:1008F0001020012A01D000207047044A143A32F82F
:10090000102021F81020012070470000680300200B
:10091000FEE70000F0B587B006460121084600F06A
:10092000D5FF0121480400F0DFFF00248DF81A40B4
:1009300001208DF81B0002258DF819508DF81850F4
:10094000082105911B4F05A93846FFF777FF8DF861
:1009500018500420059005A93846FFF76FFF0722BD
:1009600002213846FFF7A8FF072203213846FFF788
:10097000A3FF0196ADF80840ADF80A40ADF80C4071
:10098000ADF810400C20ADF80E000B4C01A920462C
:1009900001F008FA262000F03EFA012240F225512B
:1009A000204601F0E4F90121204601F0ADF907B03D
:1009B000F0BD0000000002400044004070B5104D42
:1009C0006421A86BB0F8360210FB01F0FFF7A2FF1C
:1009D0000C4C002020706070A96BA1F87A010720F0
:1009E000A070FFF77BFF6060062104F10800FFF7AD
:1009F00035FC04F108018871000AC87170BD00005F
:100A000000010020E800002070B5144C2078A17887
:100A1000884222D3124D287801281ED168780328F5
:100A20001BD1A878022818D1FFF758FF2979EA7856
:100A300041EA02220B498B6BA3F80021A2888B6B41
:100A4000821AA3F852216060886BB0F86611491CC5
:100A5000A0F8661100202070607070BDE8000020D2
:100A6000B4060020000100200A494878012806D178
:100A70000948806BB0F87A21521CA0F87A21002036
:100A8000087001204870034908220831034801F02A
:100A9000FCB90000E80000200001002000440040F4
:100AA00010B545F2555000F031F8022000F022F860
:100AB00040F6FF7000F024F800F014F8BDE8104094
:100AC000AFF3008002494CF6CC400860704700004C
:100AD0000030004002494AF6AA2008607047000032
:100AE0000030004002494AF6AA2008607047000022
:100AF000003000400149486070470000003000406D
:100B000001498860704700000030004001490860DA
:100B10007047000000300040F0B587B00646012164
:100B2000084600F0D3FE0121102000F0EBFE002467
:100B30008DF81A4001208DF81B0002258DF8195000
:100B40008DF81850410205911B4F05A93846FFF753
:100B500075FE8DF818506802059005A93846FFF714
:100B60006DFE07220A213846FFF7A6FE072209215B
:100B70003846FFF7A1FE0196ADF80840ADF80A40EF
:100B8000ADF80C40ADF810400C20ADF80E000B4C49
:100B900001A9204601F006F9252000F03CF90122C8
:100BA00040F22551204601F0E2F80121204601F0F3
:100BB000ABF807B0F0BD000000000240001001409B
:100BC000F0B587B006460121022000F07FFE01212A
:100BD000880400F089FE00248DF81A4001208DF869
:100BE0001B0002258DF819508DF81850C10205918F
:100BF0001B4F05A93846FFF721FE8DF818506802F3
:100C0000059005A93846FFF719FE07220A21384644
:100C1000FFF752FE07220B213846FFF74DFE0196E3
:100C2000ADF80840ADF80A40ADF80C40ADF8104002
:100C30000C20ADF80E000B4C01A9204601F0B2F8D3
:100C4000272000F0E8F8012240F22551204601F06B
:100C50008EF80121204601F057F807B0F0BD0000E2
:100C600000040240004800402DE9F0410524154FE2
:100C70006421B86BB0F8320210FB01F0FFF7A0FF5F
:100C8000114E00257570B570B86BA0F86E514120FB
:100C90003070FFF723FE7060062106F10800FFF7B1
:100CA000DDFA06F108018871000AC871B86B00F519
:100CB0008C7001E020F8025B641E611CFAD1BDE873
:100CC000F081000000010020440000202DE9F041E7
:100CD0001F4D68782978884237D31E4C2078012828
:100CE00033D1FFF7FBFD6178032901D006292CD110
:100CF000194E03291AD1A1783C2917D1E41CB16BF4
:100D00003C31002223781B020B806778A41C1F4310
:100D100021F8027B521C1E2AF4DB00210C4B01221D
:100D2000183343F82120491C0529FADBA988B26B46
:100D3000411AA2F846116860B06BB0F85A11491C0C
:100D4000A0F85A110020A8706870BDE8F08100007A
:100D500044000020A0040020000100202DE9F047FD
:100D60004FF0FF35284E2949B078012805D1886B0E
:100D7000B0F86E21521CA0F86E214FF0000886F8E2
:100D800001800120B070886B014600F58C705031F5
:100D900000241D4F1837B0F90020B1F900309A42F5
:100DA00004D057F824200AB1254604E0801C891C91
:100DB000641C052CEFDBDFF85890691C1AD0124C2C
:100DC00009311034E1700188090A217100786071DD
:100DD00006212046FFF742FAA071000AE0710820C0
:100DE000307047F8258021464846BDE8F047082284
:100DF00001F04BB8044908220831484601F045F893
:100E000041203070BDE8F087440000200001002040
:100E100000480040FEE738B504464FF4A06000F0FB
:100E2000F5FB8DF8004000208DF8010001208DF8C1
:100E300002008DF80300684600F0B4FB38BD0000E6
:100E4000F0B5B3B0044601AA64217348FFF78EFCE5
:100E5000BDF8B800012508B1FE2801D9ADF8B85099
:100E6000BDF8BA0060280DD0C0280BD0B0F5C07F07
:100E700008D0B0F5107F05D04FF49061884201D0C2
:100E8000ADF8BA10BDF8CA00401CADF8CA00BDF8F4
:100E9000C010C820C82901D2ADF8C000BDF8C020DC
:100EA0004FF4FA718A4201D9ADF8C010BDF8BE30D6
:100EB00041F288320026934201D9ADF8BE60BDF8F8
:100EC000C430C82B01D2ADF8C400BDF8C4308B4289
:100ED00001D9ADF8C410BDF8C230934201D9ADF8C4
:100EE000C260BDF8C830C82B01D2ADF8C800BDF84B
:100EF000C800884201D9ADF8C810BDF8C6009042BC
:100F000001D9ADF8C660BDF8B8002081BDF8BA00BF
:100F1000642148436060BDF8BE00E060BDF8C000D9
:100F20002061BDF8BE00BDF8C01008446061BDF886
:100F3000C000400001F0E0F9A06142F20F7700B973
:100F40002761BDF8C200E062BDF8C4002063BDF8AF
:100F5000C200BDF8C41008446063BDF8C40040007E
:100F600001F0CAF9A06300B92763BDF8C600E061CB
:100F7000BDF8C8002062BDF8C600BDF8C81008441E
:100F80006062BDF8C800400001F0B6F9A06200B987
:100F90002762216B6FF0C70202EB4101A06BC822F0
:100FA000084401A9FFF71EF960680A220521B0F57F
:100FB000164F28D006DCB0F5165F1DD0B0F5964F61
:100FC00006D11DE0B0F5614F20D0B0F5E13F20D053
:100FD00084F8482284F8446284F84762A4F84A629C
:100FE00084F84C5204F13C00C4F83C0204F59E70B5
:100FF000C4F8400233B0F0BD0F2084F84802E9E79E
:1010000084F84822E6E784F84812E3E784F84812B7
:10101000E0E784F84812DDE70000010870B50446F7
:101020000D4604F50F742068417841F0800141704D
:101030002168607B887003212068FFF70FF9216821
:10104000C8702168000A087128462168BDE8704010
:10105000052200F01ABF70B504460D4640F2255136
:10106000284600F064FED0B1284600F0F9FEC0B278
:1010700094F84722002182B1B4F90820824204D0BA
:1010800094F844220AB984F8471294F84422531C75
:1010900084F84432D4F840329854A4F84A1240F20A
:1010A00027742146284600F042FE002806D021463B
:1010B0002846BDE87040002200F059BE70BD70B5F2
:1010C00004460D4604F50F74A07A801EC1B2206854
:1010D000FFF7C4F8A27A2168114401F8020CA27A41
:1010E0002168000A114401F8010CA27A28462168FF
:1010F000BDE8704000F0C9BE2DE9F0410446D4F8C7
:101100003C526878002804D0C11F082901D3102858
:1011100002D90120BDE8F08194F84502A0F1080150
:10112000F32901D30320F5E7801EC1B22846FFF75B
:1011300095F8014694F84502AA1E835C6A1E805CFD
:1011400043EA0020814201D00320E3E7E878A97850
:1011500040EA012168792A7940EA02206A78012769
:10116000012A10D0022A0ED00826052A54D00F2AB0
:101170006ED0032A71D0042A70D0062A6FD0102AAC
:101180006ED00120C6E7B0F5707F01D90320C1E71A
:10119000E2688A4201DD0220BCE763690A189A42CC
:1011A00001DD0220B6E7AA1C430709D0C3085B1C77
:1011B00002F8013BA389C91A8BB20021002623E063
:1011C000C308F5E7D4F818C03CF813C0BCF1000F11
:1011D00008D092F800C007FA01F84CEA080C82F82F
:1011E00000C007E092F800C007FA01F82CEA080CEA
:1011F00082F800C0491CC9B2082901D30021521C41
:101200005B1C9BB2761CB6B28642DBD3A878401D2D
:1012100084F8460200207DE7E2688A4202DC6369C6
:101220008B4201DC022075E7B0F57F4F02D030B170
:1012300003206FE7A069891A20F8117004E00020EC
:10124000A369891A23F8110084F84662002061E737
:10125000E3688B4205DD02205CE72EE057E080E08A
:1012600091E0D4F814C00A18624501DD022051E76C
:101270000022ED1DD4F818C0C91A0CEB410300215F
:1012800015E095F800C007FA02F81CEA080F02D032
:101290004FF0010C01E04FF0000C23F802CB521C80
:1012A000D2B2082A01D300226D1C491C89B28142A6
:1012B000E7D384F8466200202CE77D2801D903207B
:1012C00028E7E36A8B4201DD022023E7666B0A18F8
:1012D000B24201DD02201DE72A46A66BC91A06EBC1
:1012E000410143009370D21C002308E00E88360AA7
:1012F000167011F8026B5670921C5B1C9BB28342F5
:10130000F4D3A878401D84F84602002002E77D2827
:1013100001D90320FEE6E3698B4201DD0220F9E6F4
:10132000666A0A18B24201DD0220F3E62A46A66A7E
:10133000C91A06EB410143009370D21C002308E058
:101340000E88360A167011F8026B5670921C5B1CE0
:101350009BB28342F4D3A878401D84F84602002053
:10136000D8E6E26A8A4202DC636B8B4201DC02202F
:10137000D0E6A36B891A23F8110084F84C7284F824
:1013800046620020C6E6E26A8A4201DD0220C1E62A
:10139000D4F834C00B18634501DD0220BAE6ED1D18
:1013A000A36B891A03EB410100220CE015F8013B05
:1013B0001B020B8015F801CB4CEA030CA1F800C00E
:1013C000891C521C92B28242F0D384F84C7284F889
:1013D000466200209EE6000010B5044694F84C02D8
:1013E00000280DD0216B6FF0C702A06B02EB41010A
:1013F000421864210348FFF7C5F9002084F84C0225
:1014000010BD0000000001082DE9F04104460E4621
:10141000B4F84A0294F84812884232D904F50F749D
:101420002168606820606160227A627200272772FA
:101430000121E172A4F50F74082A20D30078B4F9D1
:10144000081088421BD1FFF749FA05462046FFF7EE
:1014500053FE84F8490220B131462046FFF7DEFDF5
:101460000DE031462046FFF72AFEB4F85002216B0A
:10147000281AA26B083922F81100C4F85052A4F8B7
:101480004A72BDE8F08100000348B0F84A12491CD6
:10149000A0F84A12704700000001002030B599B052
:1014A0001948FFF7CDFC184C6068FFF735FBB4F91D
:1014B000082016A16846636800F008FD1B4D6946C8
:1014C000284600F0F0FCD4E9032319A1684600F097
:1014D000FDFC6946284600F0E6FCD4E90B231CA17C
:1014E000684600F0F3FC6946284600F0DCFCD4E9CD
:1014F00007231FA1684600F0E9FC6946284600F072
:10150000D2FC19B030BD0000000100200D0A537458
:101510006174696F6E204E6F3A2025642C20426101
:101520007564726174653A20256400000010014002
:101530000D0A436F696C2053746172742061647288
:101540003A202534642C204C656E3A202534640002
:101550000D0A5265672020537461727420616472B1
:101560003A202534642C204C656E3A2025346400E2
:101570000D0A526F6D202053746172742061647281
:101580003A202534642C204C656E3A2025346400C2
:1015900001490248FFF738BF001001400001002058
:1015A0007047000030B50F23C27801250178002A6A
:1015B0001FD0154A126802F4E062C2F5E062C2F37D
:1015C0000722C2F10404D3404278A24084781C4030
:1015D0001443220101F1E02181F80024007800F099
:1015E0001F018D404009800000F1E020C0F800514B
:1015F00030BD01F01F0085404809800000F1E02067
:10160000C0F8805130BD00000CED00E002490843F5
:1016100002490860704700000000FA050CED00E088
:10162000F0B587B006460121042000F04FF90121F2
:10163000202000F067F900248DF81A4001208DF871
:101640001B0002258DF819508DF818508021059146
:101650001B4F05A93846FFF7F1F88DF818504020C8
:10166000059005A93846FFF7E9F808220621384613
:10167000FFF722F9082207213846FFF71DF90196E6
:10168000ADF80840ADF80A40ADF80C40ADF8104098
:101690000C20ADF80E000B4C01A9204600F082FB97
:1016A0004720FFF7B8FB012240F22551204600F009
:1016B0005EFB0121204600F027FB07B0F0BD0000D3
:1016C00000080240001401402DE9F0410F48642158
:1016D000806BB0F8300210FB01F0FFF7A1FF00248F
:1016E0000B4E002506F10C0726F81450FFF7F6F80C
:1016F00004EBD471491047F82100641C062CF3DB7D
:1017000004488570C570BDE8F0810000000100202C
:10171000880400202C0000202DE9F041304FB878DB
:101720003978884259D32F4D2878FF2855D16878C9
:10173000FF2852D1A878A5284FD1E8786138C4B2E3
:10174000032C4AD22879284E81282CD1FFF7C6F8DD
:10175000AA1DB16B04EB840301EB8301002312F893
:1017600001CB4FEA0C2CA1F800C012F8018B48EA1B
:101770000C08A1F80080891C5B1C092BEFDBB26B05
:1017800004F1AA0132F811305B1C22F81130174A1B
:10179000D6F838C004F1A00332F82410411A2CF80E
:1017A000131042F824002879822813D19621B06BB7
:1017B00001EB440130F811200C490C3921F82420A8
:1017C000972202EB440230F81200012202EB44029D
:1017D00021F812000020B870F870BDE8F081000018
:1017E0002C00002088030020000100209404002029
:1017F0002DE9F041304D314BE878012807D1687868
:10180000996BB43031F81020521C21F810200020C0
:10181000A8700120E8706C78620002F196019B6B61
:10182000274E284833F9117036F912C0674507D1A1
:101830004F1C521C33F9177036F91220974222D0F0
:101840001D4E61340C36E4B2F47033F811200AB145
:10185000012200E00022B271491C33F8111081B15D
:1018600010211143B1713279737922441944114422
:10187000F171114909220C3100F007FB0B2028708F
:101880000FE00021EDE70C496134091DCC700A79A5
:101890004B7922441A448A71082200F0F6FA1D207E
:1018A00028706878401C0321B0FBF1F201FB1200A4
:1018B0006870BDE8F08100002C00002000010020CD
:1018C000880400200014014070470000054A0029E8
:1018D00003D01168014311607047116881431160A2
:1018E0007047000030380240054A002903D01168D3
:1018F0000143116070471168814311607047000017
:1019000040380240054A002903D0116801431160A4
:1019100070471168814311607047000044380240ED
:1019200070B5244B196801F00C01234C00291ED01E
:10193000224E04291DD008291DD00460196801F029
:10194000F00109091E4A545C0168E14041601C68CD
:1019500004F4E054A40A145D21FA04F484601B68C2
:1019600003F460435B0BD25CD140C16070BD046086
:10197000E4E70660E2E70F4A121F1168C1F38055E1
:10198000116801F03F0135B1B6FBF1F11468C4F301
:101990008814614305E0B4FBF1F11468C4F38814C2
:1019A00061431268C2F30142521C5200B1FBF2F1D2
:1019B0000160C3E7083802400024F40040787D014C
:1019C00014000020704700001CB500210191009117
:1019D0002E4A106840F4803010604FF4A043106825
:1019E00000F4003000900198401C0190009810B95C
:1019F00001989842F3D11068800302D5012000902D
:101A000000E00091009801283FD120484030016853
:101A100041F0805101601E49086840F44040086070
:101A20001A48083003680360036843F40043036006
:101A3000036843F4A0530360041F164B236013682C
:101A400043F08073136013689B01FCD50A6842F46D
:101A500080320A604A68D203FCD50A6842F4003238
:101A60000A604A689203FCD50B4A40F20571116086
:101A7000016821F003010160016841F00201016089
:101A80000168C1F381010229FAD11CBD003802406E
:101A900000700040195A4007003C02400A2806D254
:101AA000034A491C22F81010143222F81010704713
:101AB0005403002010B5FFF7E7FC0C484168491CAF
:101AC0004160016811B90168491E016000200849A0
:101AD00031F81020012A04D931F81020521E21F8C3
:101AE0001020401C0A28F3DB10BD00002400002059
:101AF0006803002010B5164842F210710068B0FB70
:101B0000F1F0401E00214FF0E022B0F1807F01D3C0
:101B1000012007E050610F4BF02018709161072001
:101B20001061002000B1FEE7106960F00100106153
:101B30000020094A02F1140302F1280422F81010CF
:101B400023F810102154401C0A28F7DB10BD0000B8
:101B50000000002023ED00E05403002010B51248DF
:101B6000016841F4700101601048016841F0010111
:101B700001600E4A00210832116002680C4B1A40C5
:101B80000260031D0B4A1A60026822F48022026080
:101B900006480C300160FFF717FF03494FF0006063
:101BA0008039086010BD000088ED00E00038024078
:101BB000FFFFF6FE1030002470B5104C40F22551A6
:101BC000204600F0B4F840B1204600F049F90C4B33
:101BD00059784A1C5A700B4A505440F227752946CE
:101BE000204600F0A4F8002806D029462046BDE88B
:101BF0007040002200F0BBB870BD000000780040CB
:101C000070000020B405002001490248FFF723BA04
:101C1000001001400001002070B5104C40F2255129
:101C2000204600F084F840B1204600F019F90C4B32
:101C300019784A1C1A700B4A505440F227752946ED
:101C4000204600F074F8002806D029462046BDE85A
:101C50007040002200F08BB870BD000000440040CE
:101C6000E8000020B406002070B5104C40F2255169
:101C7000204600F05CF840B1204600F0F1F80C4B33
:101C800059784A1C5A700B4A505440F2277529461D
:101C9000204600F04CF8002806D029462046BDE832
:101CA0007040002200F063B870BD000000480040A2
:101CB00044000020A004002070B5104C40F22551D3
:101CC000204600F034F840B1204600F0C9F80C4B33
:101CD00099784A1C9A700B4A505440F2277529464D
:101CE000204600F024F8002806D029462046BDE80A
:101CF0007040002200F03BB870BD000000140140AD
:101D00002C00002088030020002904D0818941F4A0
:101D1000005181817047818921F400518181704790
:101D20000246002012880A4200D00120704770B598
:101D3000002440F66A12C1F3421301F01F05012688
:101D400006FA05F2012B0CD0022B0DD0838A13402A
:101D5000090A8E40008830400BB100B101242046B2
:101D600070BD83891340F3E7038A1340F0E710B591
:101D700040F66A13C1F3421301F01F040121A14090
:101D8000012B07D0022B07D014303AB102680A4366
:101D9000026010BD0C30F8E71030F6E702688A43A5
:101DA000026010BD7FB504460D46208A20F44051E4
:101DB000E88808432082A08941F20C618843A98801
:101DC0002A8911436A8902431143A181A08A20F420
:101DD0004071A8890843A0826846FFF7A1FD1E480C
:101DE000844202D01D48844201D1039800E0029849
:101DF000A189090408D500EBC00101EB0010296896
:101E00004900B0FBF1F007E000EBC00101EB00106E
:101E100029688900B0FBF1F06422B0FBF2F10901FE
:101E20000B096FF018056B4300EB8300A3891D04B9
:101E30004FF0320307D503EBC000B0FBF2F000F027
:101E40000700084306E003EB0010B0FBF2F000F0DF
:101E50000F00084320817FBD0010014000140140A5
:101E60008088C0F308007047C1F308018180704783
:101E7000FEE710B504462046FFF7F6FF8021204616
:101E8000FFF74EFF0028F9D010BD70B506460C468E
:101E9000154604E014F8011B3046FFF7EAFF6D1EFB
:101EA000681CF7D170BD70B506460D46002430465B
:101EB000295DFFF7DEFF641C285D0028F7D1402173
:101EC0003046FFF72DFF0028F9D070BD0FB4084B46
:101ED00010B504A902AA039800F01CF8044602A950
:101EE000002000F0B8F9204610BC5DF814FB00009B
:101EF0005722000802E008C8121F08C1002AFAD1C0
:101F000070477047002001E001C1121F002AFBD179
:101F1000704700002DE9FF4F8BB08846054600262C
:101F200006E025280BD0DDE90D1290476D1C761CCC
:101F300028780028F5D10FB03046BDE8F08F002496
:101F4000A146A2460122AE4900E0044315F8013F34
:101F5000203B02FA03F00842F7D128782A2810D053
:101F60006FF02F022878A0F13001092915D809EB6C
:101F7000890102EB410144F0020400EB01096D1CF0
:101F8000F0E758F8041B5FEA010903D544F4005454
:101F9000C9F1000944F002046D1C28782E2817D1DD
:101FA00015F8010F44F004042A280ED06FF02F0218
:101FB0002878A0F1300109290AD80AEB8A0102EB3E
:101FC000410100EB010A6D1CF2E758F804AB6D1CEF
:101FD00028786C280FD006DC4C2817D068280DD044
:101FE0006A2814D104E0742810D07A280FD10DE0AB
:101FF00044F400140AE044F4801401E044F4401472
:102000006978814202D104F580146D1C6D1C28781A
:10201000692865D006DC00288DD0632827D0642885
:1020200006D15DE06E2808D073282AD0752877D0B5
:10203000DDE90D129047761CE0E0C4F3025002285F
:1020400009D003280DD0D8F8001004280DD00E6058
:1020500008F10408D2E0D8F80010F217C1E90062D4
:10206000F6E7D8F800100E80F2E70E70F0E718F8E7
:10207000041B8DF8001000208DF80100EB460120B4
:1020800003E058F804BB4FF0FF3061074FF0000742
:1020900001D40AE07F1C57450DDA8742FADB1BF8B2
:1020A00007100029F6D106E07F1C8742FCDB1BF8F5
:1020B00007100029F8D1DDE90D23A9EB07008146BF
:1020C000214600F0B1F83044C61904E0DDE90D12F4
:1020D0001BF8010B90477F1EF8D22146484688E046
:1020E00058F8040BC4F302514FF00A0B032900D136
:1020F00000B2042900D140B2002802DA40422D216A
:1021000002E0210505D52B218DF82410012104E0E2
:1021100006E0E10710D02021F6E708AF089113E0B0
:1021200058F8040BC4F302514FF00A0B032900D1F5
:1021300080B2042900D1C0B20021EEE75946FEF773
:1021400063F8303107F8011D0028F7D1ADEB070027
:1021500000F1200B600702D524F4803401E04FF039
:10216000010ADA4502DDAAEB0B0000E000208246FE
:1021700000EB0B0108980144A9EB01000A90E00371
:1021800006D4DDE90D2321460A9800F04DF80644F7
:102190004FF0000908E009A911F80900DDE90D1266
:1021A000904709F10109761C08998945F3DBE003A2
:1021B0000CD5DDE90D2321460A9800F035F80644D8
:1021C00004E0DDE90D1230209047761CBAF10001E1
:1021D000AAF1010AF5DC05E0DDE90D1217F8010BA3
:1021E0009047761CBBF10001ABF1010BF4DC0A98BF
:1021F0002146DDE90D2300F005F806446D1C97E645
:10220000092801002DE9F041044600251E46174625
:10221000880404D405E039462020B0476D1C641EB4
:10222000F9D52846BDE8F0812DE9F04104460025A6
:102230001E469046C80301D5302700E020278804B9
:1022400004D505E041463846B0476D1C641EF9D5FB
:102250002846BDE8F0810A68531C0B601070704777
:10226000FFF748FCFEF7C0FAFFF718F9FFF72CFA62
:10227000FEF7FAFCFEF75CF8FEF7A0FB4FF4FA71EC
:102280000020FFF70BFC4FF47A710120FFF706FCEA
:1022900064210220FFF702FCFEF702FC144CFFF75A
:1022A00077F9FFF739FAFEF711FDFEF769F8FEF747
:1022B000ABFB0020FEF718FB28B1FEF70BFC2068F3
:1022C00080F4005020600120FEF70EFB10B1094899
:1022D000FFF782F80220FEF707FB0028DFD0FFF7A8
:1022E00087FAFEF73BFDFEF7A9F8FEF7BDFBD6E740
:1022F0001404024000010020F0B50B30154D20F011
:1023000007010024144A0FE003688B420BD38B4271
:1023100005D95E1A43184768C3E9006700E04368BF
:10232000136002C004E0021D10680028ECD12046B2
:10233000002802D1286808B10020F0BD064A0748ED
:102340001060074A121A22F00702C0E90024012097
:102350002860D7E7FC000020F8000020BC07002020
:10236000B85700200000C1C081C1400101C3C003B3
:10237000800241C201C6C006800741C70005C1C531
:1023800081C4400401CCC00C800D41CD000FC1CFF1
:1023900081CE400E000AC1CA81CB400B01C9C009E1
:1023A000800841C801D8C018801941D9001BC1DB81
:1023B00081DA401A001EC1DE81DF401F01DDC01D31
:1023C000801C41DC0014C1D481D5401501D7C01751
:1023D000801641D601D2C012801341D30011C1D161
:1023E00081D0401001F0C030803141F10033C1F3A1
:1023F00081F240320036C1F681F7403701F5C03531
:10240000803441F4003CC1FC81FD403D01FFC03FF0
:10241000803E41FE01FAC03A803B41FB0039C1F9E0
:1024200081F840380028C1E881E9402901EBC02B40
:10243000802A41EA01EEC02E802F41EF002DC1ED30
:1024400081EC402C01E4C024802541E50027C1E750
:1024500081E640260022C1E281E3402301E1C02160
:10246000802041E001A0C060806141A10063C1A360
:1024700081A240620066C1A681A7406701A5C06530
:10248000806441A4006CC1AC81AD406D01AFC06FF0
:10249000806E41AE01AAC06A806B41AB0069C1A9E0
:1024A00081A840680078C1B881B9407901BBC07B80
:1024B000807A41BA01BEC07E807F41BF007DC1BD30
:1024C00081BC407C01B4C074807541B50077C1B750
:1024D00081B640760072C1B281B3407301B1C07160
:1024E000807041B00050C190819140510193C05320
:1024F000805241920196C056805741970055C19530
:1025000081944054019CC05C805D419D005FC19FEF
:10251000819E405E005AC19A819B405B0199C059DF
:10252000805841980188C04880494189004BC18B3F
:10253000818A404A004EC18E818F404F018DC04D2F
:10254000804C418C0044C184818540450187C0474F
:10255000804641860182C042804341830041C1815F
:102560008180404084250008000000200001000018
:10257000F41E00088426000800010020B85A00005C
:10258000041F00080095BA0A0000000000000000C7
:102590000102030406070809000000000102030409
:1025A0000102030406070809000000000000000003
:1025B00064000000FFFFA5610105CC26FFFFA561B7
:1025C000020600CC260000005500000000000000BC
:1025D00001030000001E0000010600000000CCCC3A
:1025E00001000000010000000100000001000000E7
:1025F0000100000055000000000000000000000085
:102600000103000000000000010600000000CCCC27
:10261000010018005000000018000000C810085801
:10262000020018006800000018000000D8100870B0
:1026300003000A003C0000000A0000000000000047
:1026400004000A00460000000A000000000000002C
:10265000050008008200000008000000E808008271
:10266000FFFFFFFFFFFFFFFFFFFF00000000000074
:102670000000000001030000000100000000000055
:042680000000000056
:04000005080001AD41
:00000001FF
